:100000000C942A000C9463030C9497030C944700FF
:100010000C9447000C9447000C9447000C94470044
:100020000C9447000C9447000C9447000C94470034
:100030000C9447000C9447000C9447000C94470024
:100040000C9447000C9447000C9447000C94470014
:100050000C94470011241FBECFE5D8E0DEBFCDBF12
:1000600010E0A0E6B0E0E8E9FEE002C005900D92E5
:10007000A638B107D9F720E0A6E8B0E001C01D928C
:10008000A63BB207E1F70E948A040C944A070C943D
:100090000000FC010FB6F8946091B2007091B300BB
:1000A0008091B4009091B5000FBE309721F060832D
:1000B0007183828393830895672B09F09FC0009713
:1000C00011F4D89808958130910511F4D9980895C4
:1000D0008230910511F4DA9808958330910511F476
:1000E000DB9808958430910511F4DC9808958530EB
:1000F000910511F4DD9808958630910511F4DE988C
:1001000008958730910511F4DF9808958A3091059C
:1001100011F4C09808958B30910511F4C198089599
:100120008C30910511F4C29808958D30910511F429
:10013000C39808958E30910511F4C49808958F30B6
:10014000910511F4C59808958031910511F4C69870
:1001500008958131910511F4C7980895843191056E
:1001600011F4A89808958531910511F4A99808957E
:100170008631910511F4AA9808958731910511F4FB
:10018000AB9808958831910511F4AC9808958931A0
:10019000910511F4AD9808958A31910511F4AE9846
:1001A00008958B31910511F4AF9808958E31910522
:1001B00011F4909808958F31910511F49198089554
:1001C0008032910511F4929808958132910511F4CD
:1001D000939808958232910511F49498089583328A
:1001E000910511F4959808958432910511F496982B
:1001F0000895859709F09FC097980895009711F486
:10020000D89A08958130910511F4D99A08958230D1
:10021000910511F4DA9A08958330910511F4DB9A6F
:1002200008958430910511F4DC9A08958530910584
:1002300011F4DD9A08958630910511F4DE9A08953F
:100240008730910511F4DF9A08958A30910511F4F1
:10025000C09A08958B30910511F4C19A08958C309D
:10026000910511F4C29A08958D30910511F4C39A45
:1002700008958E30910511F4C49A08958F30910538
:1002800011F4C59A08958031910511F4C69A089524
:100290008131910511F4C79A08958431910511F4C3
:1002A000A89A08958531910511F4A99A0895863187
:1002B000910511F4AA9A08958731910511F4AB9A2A
:1002C00008958831910511F4AC9A0895893191050A
:1002D00011F4AD9A08958A31910511F4AE9A0895FA
:1002E0008B31910511F4AF9A08958E31910511F477
:1002F000909A08958F31910511F4919A0895803262
:10030000910511F4929A08958132910511F4939A0E
:1003100008958232910511F4949A089583329105DB
:1003200011F4959A08958432910511F4969A0895DE
:10033000859709F4979A0895CF93C82F80FF07C037
:1003400061E070E08EE090E00E945C0006C060E03A
:1003500070E08EE090E00E945C00C1FF07C061E0A9
:1003600070E08FE090E00E945C0006C060E070E00A
:100370008FE090E00E945C00C2FF07C061E070E087
:1003800080E190E00E945C0006C060E070E080E1E7
:1003900090E00E945C00C3FF07C061E070E081E173
:1003A00090E00E945C0006C060E070E081E190E0B7
:1003B0000E945C00CF910895CF93C82F60E070E059
:1003C0008AE090E00E945C008C2F0E949C0161E01A
:1003D00070E08BE090E00E945C0089EF90E0019774
:1003E000F1F700C0000060E070E08BE090E00E9458
:1003F0005C0089EF90E00197F1F700C00000CF9119
:10040000089580E00E94DC0181E00E94DC010895F3
:10041000CF93C62F813059F480E8860F82958F7074
:100420000E94DC018C2F8F700E94DC010CC0823096
:1004300051F480EC860F82958F700E94DC018C2F26
:100440008F700E94DC01CF91089580E00E949C0192
:1004500087E893E10197F1F700C0000083E00E9474
:10046000DC0181EE94E00197F1F700C0000083E029
:100470000E94DC018DEB9AE00197F1F700C00000CB
:1004800083E00E94DC0182E00E94DC0182E00E94A5
:10049000DC0188E00E94DC0180E00E94DC018CE04D
:1004A0000E94DC0180E00E94DC0186E00E94DC0109
:1004B0000895CF93C82F61E070E08AE090E00E9439
:1004C0005C008C2F82958F700E949C0161E070E02F
:1004D0008BE090E00E945C0089EF90E00197F1F7DB
:1004E00000C0000060E070E08BE090E00E945C00E3
:1004F00089EF90E00197F1F700C000008C2F8F701A
:100500000E949C0161E070E08BE090E00E945C0042
:1005100089EF90E00197F1F700C0000060E070E023
:100520008BE090E00E945C0089EF90E00197F1F78A
:1005300000C00000CF910895CF93DF93EC01888134
:10054000882331F021960E94590289918111FBCFB5
:10055000DF91CF910895CF92DF92EF92FF920F93A8
:100560001F93CF93DF9399230CF459C0AC018C01F6
:1005700001501109FC01E656FF4FC9E6D0E00F2EED
:10058000F4E6CF2EF0E0DF2EF02D80E090E00F2E8D
:10059000FAE9EF2EF0E0FF2EF02D0BC0415051098B
:1005A0000150110931972196AFEFCA1ADA0A3323A5
:1005B000B4F14031510514F098012CC0611571055A
:1005C000A1F48430910559F44F30510541F4D7011D
:1005D0001F962C911F972F7D1F962C931AC0208158
:1005E0002F703881232B208314C08430910559F457
:1005F0004F30510541F4D7011F962C911F972B7F47
:100600001F962C9306C02081207FD6013C91232B7E
:100610002083980101968530910509F0BFCFDF91C5
:10062000CF911F910F91FF90EF90DF90CF900895A1
:10063000BC01AEE6B0E0E6EAF0E04AEA50E09D91A7
:100640006115710529F4907F2081207F208304C0EB
:100650009F7020812F7020832081922B9193E4172B
:10066000F50769F708951092AB001092AA0080E098
:1006700090E08295807F82BB8091AA009091AB0030
:10068000883091053CF4FC01E656FF4F808185BB24
:100690001BBA06C0FC01E656FF4F80818BBB15BA22
:1006A00089EF90E00197F1F700C000008091AA0067
:1006B0009091AB0001969093AB008093AA0080319B
:1006C0009105BCF208951F920F920FB60F9211245C
:1006D0002F933F934F935F936F937F938F939F934A
:1006E000AF93BF93EF93FF93809186009091870023
:1006F000892B61F481E090E00E94180381E090E092
:1007000090938700809386008FEF8ABFFF91EF91CF
:10071000BF91AF919F918F917F916F915F914F9119
:100720003F912F910F900FBE0F901F9018951F9221
:100730000F920FB60F9211242F933F934F935F9315
:100740006F937F938F939F93AF93BF93EF93FF9399
:100750008091860090918700019751F480E090E0AD
:100760000E94180310928700109286008FEF8ABFB4
:10077000FF91EF91BF91AF919F918F917F916F9179
:100780005F914F913F912F910F900FBE0F901F904F
:100790001895EF92FF920F931F93CF93DF930F2E35
:1007A000F6E0EF2EF12CF02D0EE910E0809186009E
:1007B000909187000E941803CAE0D0E00E943303A2
:1007C0002197E1F72091860030918700EAE9F0E077
:1007D000AEE6B0E02115310539F48C91807F80952B
:1007E00094858923848706C08C918F708095948529
:1007F0008923848731961196E017F10759F7CAE0EB
:10080000D0E00E9433032197E1F781E0E81AF10874
:1008100069F6DF91CF911F910F91FF90EF900895AE
:10082000CF93DF93EAE9F0E08AEA90E01192E817CB
:10083000F907E1F780EC8BBF8AE085BF78941092CE
:10084000B1001092B0001092AD001092AC008FEF8A
:100850009FEF90938B0080938A00C1E0D0E0D0930B
:100860009100C09390009093930080939200109217
:100870008F0010928E00109287001092860080E008
:1008800090E00E94180384E190E09093AF00809381
:10089000AE001092970010929600D0939900C093EA
:1008A000980010929500109294000E9425020E94D8
:1008B000010260E081E00E94080282E790E00E946D
:1008C0009C0268E081E00E9408024AE06AE970E068
:1008D00080919400909195000E94B2060E949C0223
:1008E00060E082E00E9408028BE790E00E949C0298
:1008F00068E082E00E9408024AE06AE970E08091C4
:100900009800909199000E94B2060E949C02DF918B
:10091000CF910895CF93DF93CDB7DEB72A970FB667
:10092000F894DEBF0FBECDBF80E090E00E9449008A
:10093000CB010E94A70684B7806884BF84B7806813
:1009400084BF8FEF8ABB87BB84BB80EF81BB0E94D3
:100950001004EE24EA94FE2C8091B0009091B10036
:100960008431910578F46091AC007091AD000E94E3
:10097000AB028091B0009091B10001969093B100CC
:100980008093B00080918A0090918B008431910512
:1009900078F460919000709191000E94AB02809178
:1009A0008A0090918B00019690938B0080938A002F
:1009B00080919200909193008431910578F4609138
:1009C0008E0070918F000E94AB02809192009091F6
:1009D0009300019690939300809392008091B000D1
:1009E0009091B1000A9799F410928B0010928A00AE
:1009F0000E94A20681709078992324F401978E6F4B
:100A00009F6F0196909391008093900031C08091E8
:100A10008A0090918B000A9799F41092930010929B
:100A200092000E94A20681709078992324F4019785
:100A30008E6F9F6F019690938F0080938E0018C0E9
:100A400080919200909193000A9791F41092B100D6
:100A50001092B0000E94A20681709078992324F42D
:100A600001978E6F9F6F01969093AD008093AC00BD
:100A70008091B0009091B100449739F5F092B100A7
:100A8000E092B0008091960090919700019690932B
:100A90009700809396008091940090919500019624
:100AA000909395008093940068E081E00E94080292
:100AB0004AE0BE016F5F7F4F809194009091950056
:100AC0000E94B2060E949C0259C080918A009091B7
:100AD0008B00449739F5F0928B00E0928A00809168
:100AE00096009091970001969093970080939600BE
:100AF0008091940090919500019690939500809339
:100B0000940068E081E00E9408024AE0BE016F5F45
:100B10007F4F80919400909195000E94B2060E94B0
:100B20009C022CC08091920090919300449731F5E3
:100B3000F0929300E092920080919600909197003D
:100B400001969093970080939600809194009091E5
:100B500095000196909395008093940068E081E061
:100B60000E9408024AE0BE016F5F7F4F80919400AF
:100B7000909195000E94B2060E949C02809196007E
:100B8000909197000397C1F51092970010929600EC
:100B90008091980090919900803191052CF40196F4
:100BA000909399008093980068E082E00E94080288
:100BB0004AE0BE016F5F7F4F80919800909199004D
:100BC0000E94B2060E949C028091AE009091AF00FC
:100BD0008B30910534F00A979093AF008093AE006C
:100BE0000BC09C01235031092830310528F40197AE
:100BF0009093AF008093AE008091B0009091B100CF
:100C00000D97C4F02091AC003091AD00809186002A
:100C1000909187002817390769F4F8940E94C90356
:100C20000E9410048091AE009091AF001816190632
:100C30007CF192CE80918A0090918B000D978CF080
:100C400020919000309191008091860090918700D2
:100C50002817390731F4F8940E94C9030E94100440
:100C6000E1CF80919200909193000D97DCF220915A
:100C70008E0030918F008091860090918700281718
:100C8000390781F6F8940E94C9030E941004CACF64
:100C900000E010E00E9433030F5F1F4F8091AE0011
:100CA0009091AF0008171907ACF356CE8F929F9220
:100CB000AF92BF92CF92DF92EF92FF92CF93DF93EA
:100CC000EC01688179818A819B81611571058105BB
:100CD000910521F464E279ED8BE597E02DE133EFA6
:100CE00041E050E00E94E70649015A019B01AC0136
:100CF000A7EAB1E40E9406076B017C01ACEEB4EFF9
:100D0000A50194010E941407DC01CB018C0D9D1DEF
:100D1000AE1DBF1DB7FF03C00197A109B04888836E
:100D20009983AA83BB839F77DF91CF91FF90EF9048
:100D3000DF90CF90BF90AF909F908F9008950E94CA
:100D40005606089580E690E00E9456060895A0E0B9
:100D5000B0E08093600090936100A0936200B09334
:100D600063000895BB274A3031F4992322F4BDE291
:100D7000909581959F4F0C94BE06BB27FB0155278C
:100D8000AA27880F991FAA1FA41710F0A41B8395E8
:100D90005051B9F7A05DAA3308F0A95DA19300975F
:100DA00079F7B111B1931192CB010C94D706DC0104
:100DB000FC01672F71917723E1F7329704C07C9192
:100DC0006D9370836291AE17BF07C8F30895052E27
:100DD00097FB1EF400940E94FE0657FD07D00E9468
:100DE000190707FC03D04EF40C94FE06509540956D
:100DF000309521953F4F4F4F5F4F089590958095C7
:100E0000709561957F4F8F4F9F4F08950E943B07CC
:100E1000A59F900DB49F900DA49F800D911D11244E
:100E20000895B7FF0C9406070E940607821B930BD8
:100E30000895A1E21A2EAA1BBB1BFD010DC0AA1F1B
:100E4000BB1FEE1FFF1FA217B307E407F50720F033
:100E5000A21BB30BE40BF50B661F771F881F991FAE
:100E60001A9469F760957095809590959B01AC01F7
:100E7000BD01CF010895A29FB001B39FC001A39F00
:100E8000700D811D1124911DB29F700D811D1124C3
:080E9000911D0895F894FFCFB5
:100E9800010000000A040E04005020702000247E87
:100EA800245A53636F7265203A20004C6576656C4E
:060EB800203A203000008A
:00000001FF
